:400000000080002011000000F5120000F512000080B500AF024A034B1B68136001F06EF9BC760040FA46004010B5054C237833B9044B13B10448AFF300800123237010BDA1
:40004000F081FF1F0000000078410000084B10B51BB108480849AFF300800848036803B910BD074B002BFBD0BDE81040184700BF0000000078410000F481FF1F0881FF1FFF
:400080000000000080B500AF62B602F03BFC02F083FD012003F0BCFA012003F0D7FA012003F0F2FA012003F009FB1B4B1B78184602F0CAFC184B1B78184602F00FFE01F08F
:4000C000D1FC01F0E5FC02F0DFFC02F05BFE02F03BFF002002F096FE002002F075FF01F0D3FD01F0FFFC002003F082FA03F086F903F0DCF9094801F091F800F015F801F0C2
:4001000097F8074B1B78012B05D1064801F086F8034B00221A70F0E75081FF1F1081FF1F1D82FF1F9483FF1F80B500AF00F048FC0246384B1B681046194600F099FC00F09B
:40014000D3FC354B1B68012B63D1344B1B68002B13DB324B1B68B3F5617F0EDA012003F0CBFA002003F0E6FA002003F0FDFA002003F018FB00F054F84BE0284B1B68B3F5C1
:40018000617F13DB254B1B68B3F5E16F0EDA002003F0B2FA012003F0CDFA002003F0E4FA002003F0FFFA00F01FF932E01B4B1B68B3F5E16F14DB194B1B6840F68B2293427E
:4001C0000EDC002003F098FA002003F0B3FA012003F0CAFA002003F0E5FA00F0EBF918E00E4B1B6840F68B22934212DD0B4B1B68B3F5616F0DDA002003F07EFA002003F0C1
:4002000099FA002003F0B0FA012003F0CBFA00F0CFFA80BD5481FF1FD882FF1FD482FF1F80B500AF674B1B68012B40F0CA80664B5B881AB2654B1B68D31A654A1360624BB2
:400240009B881AB2634B1B68D31A634A1360604B1A68624B1B689A4202DD00F08DFBFEE75D4B1B68022B4EDD574BDB881BB2C3F5E163632B1ADC544BDB881BB2C3F5E1633C
:40028000574A82FB03129210DB17D31ADAB2554B1B781344DBB20133DBB2184602F0D4FB504B1B78184602F019FD0BE04D4B1B780B33DBB2184602F0C7FB4A4B1B781846FA
:4002C00002F00CFD1AE000F00FFC3F4B5B881AB23E4B1B68D31A3E4A13603B4B9B881AB23C4B1B68D31A3C4A1360394B1A683B4B1B689A4202DD00F03FFBFEE7364B1B689F
:40030000002BE0DB5DE0344B1B6813F1020F4EDA2D4BDB881BB2A3F5E163632B1ADC314B1B78184602F090FB274BDB881BB2A3F5E1632B4A82FB03129210DB17D31ADAB2D7
:40034000284B1B781344DBB20133DBB2184602F0C5FC0BE0234B1B78184602F075FB214B1B780B33DBB2184602F0B8FC1AE000F0BBFB154B5B881AB2144B1B68D31A144A6B
:400380001360114B9B881AB2124B1B68D31A124A13600F4B1A68114B1B689A4202DD00F0EBFAFEE70C4B1B68002BE0DC09E00D4B1B78184602F048FB0A4B1B78184602F053
:4003C0008DFC80BDD882FF1F3484FF1FCC82FF1FDC82FF1FD082FF1FE082FF1F5881FF1F676666665081FF1F80B500AF684B1B68012B40F0CC80674B1A68674B5B881BB23A
:40040000D31A664A1360664B1A68634B9B881BB2D31A644A1360634B1A68634B1B689A4202DD00F0A9FAFEE75C4B1B6813F1020F50DA594BDB881BB2C3F528630C33632BEC
:400440001BDC554BDB881BB2C3F528630C33574A82FB03129210DB17D31ADAB2544B1B781344DBB20133DBB2184602F0EDFA504B1B78184602F032FC0BE04D4B1B780B33E5
:40048000DBB2184602F0E0FA494B1B78184602F025FC1AE000F028FB3E4B1A683E4B5B881BB2D31A3D4A13603D4B1A683A4B9B881BB2D31A3B4A13603A4B1A683A4B1B6842
:4004C0009A4202DD00F058FAFEE7344B1B68002BE0DC5CE0314B1B68022B4EDD2E4BDB881BB2A3F68C23632B1ADC314B1B78184602F0AAFA284BDB881BB2A3F68C232B4AC6
:4005000082FB03129210DB17D31ADAB2284B1B781344DBB20133DBB2184602F0DFFB0BE0234B1B78184602F08FFA214B1B780B33DBB2184602F0D2FB1AE000F0D5FA154B82
:400540001A68154B5B881BB2D31A144A1360144B1A68114B9B881BB2D31A124A1360114B1A68114B1B689A4202DD00F005FAFEE70A4B1B68002BE0DB09E00D4B1B78184606
:4005800002F062FA0A4B1B78184602F0A7FB80BDD882FF1FCC82FF1F3484FF1FDC82FF1FD082FF1FE082FF1F5881FF1F676666665081FF1F80B500AF734B1B68012B40F0B0
:4005C000E280724B1A68724B5B881BB2D31A714A1360714B1A686E4B9B881BB2D31A6F4A13606B4BDB881BB26D4A13606C4B1B68B3F5E16F06DA6A4B1B6803F5E163684A8A
:4006000013600AE0664B1B68B3F5E16F05DD644B1B68A3F5E163624A13605E4B1A68614B1B689A4202DD00F0A7F9FEE75B4B1B68022B4CDD5A4B1B68C3F5E163632B19DC72
:40064000574B1B68C3F5E163574A82FB03129210DB17D31ADAB2554B1B781344DBB20133DBB2184602F0F0F9504B1B78184602F035FB0BE04D4B1B780B33DBB2184602F029
:40068000E3F94A4B1B78184602F028FB1AE000F02BFA3E4B1A683E4B5B881BB2D31A3D4A13603D4B1A683A4B9B881BB2D31A3B4A1360384B1A683B4B1B689A4202DD00F06C
:4006C0005BF9FEE7354B1B68002BE0DB5BE0334B1B6813F1020F4CDA314B1B68A3F5E163632B19DC314B1B78184602F0ADF92C4B1B68A3F5E1632C4A82FB03129210DB178C
:40070000D31ADAB2294B1B781344DBB20133DBB2184602F0E3FA0BE0244B1B78184602F093F9224B1B780B33DBB2184602F0D6FA1AE000F0D9F9154B1A68154B5B881BB205
:40074000D31A144A1360144B1A68114B9B881BB2D31A124A13600F4B1A68124B1B689A4202DD00F009F9FEE70C4B1B68002BE0DC09E00E4B1B78184602F066F90B4B1B7856
:40078000184602F0ABFA80BDD882FF1FCC82FF1F3484FF1FDC82FF1FD082FF1FE082FF1FE482FF1F5881FF1F676666665081FF1F80B500AF674B1B68012B40F0CA80664B6E
:4007C0005B881AB2654B1B68D31A654A1360624B9B881AB2634B1B68D31A634A1360624B1A68624B1B689A4202DD00F0C5F8FEE75B4B1B6813F1020F4EDA574BDB881BB24A
:40080000C3F56173632B1ADC534BDB881BB2C3F56173574A82FB03129210DB17D31ADAB2544B1B781344DBB20133DBB2184602F00BF9504B1B78184602F050FA0BE04D4B98
:400840001B780B33DBB2184602F0FEF8494B1B78184602F043FA1AE000F046F93E4B5B881AB23E4B1B68D31A3D4A13603A4B9B881AB23C4B1B68D31A3B4A13603A4B1A6862
:400880003A4B1B689A4202DD00F076F8FEE7344B1B68002BE0DC5CE0314B1B68022B4EDD2D4BDB881BB2A3F56173632B1ADC314B1B78184602F0C8F8274BDB881BB2A3F5C5
:4008C00061732B4A82FB03129210DB17D31ADAB2284B1B781344DBB20133DBB2184602F0FDF90BE0234B1B78184602F0ADF8214B1B780B33DBB2184602F0F0F91AE000F051
:40090000F3F8154B5B881AB2144B1B68D31A144A1360114B9B881AB2124B1B68D31A124A1360114B1A68114B1B689A4202DD00F023F8FEE70A4B1B68002BE0DB09E00D4BCF
:400940001B78184602F080F80A4B1B78184602F0C5F980BDD882FF1F3484FF1FCC82FF1FDC82FF1FD082FF1FE082FF1F5881FF1F676666665081FF1F80B500AF7F2002F0CF
:4009800063F87F2002F0AAF980BD00BF80B584B000AF02F013FA03465B42FB6002F0F0FA03465B42BB60FA68BB681344DA0F13445B107B607B6818461037BD4680BD00BF8E
:4009C00080B584B000AF244B1B78012B38D1FFF7DDFFF860214B1B68FA68D31ABB60B86803F050F802460B461046194618A3D3E9002303F0ADF802460B46104619464FF0BD
:400A00000002174B03F0A4F802460B46104619464FF00002134B03F0C5F902460B461046194603F0A7FA03467B600C4AFB681360094B00221A700C4B01221A607B6800E03C
:400A4000002318461037BD4680BD00BFAFF300802B8716D9CE7733401F82FF1F3482FF1F0000244000806C403C82FF1FAFF3008080B582B000AF78603960194B1B68012B79
:400A80002BD17A683B689A4210DA164B1B780133DAB2144B1A70134B1B78184601F0D4FF104B1B78184602F019F913E07A683B689A420FDD0B4B1B78013BDAB2094B1A7020
:400AC000084B1B78184601F0BFFF064B1B78184602F004F9024B00221A600837BD4680BD3C82FF1F5081FF1F80B500AF9B4B1B78012B40F0738302F03FFD03461A46984B36
:400B00001A60974B1B68DBB2184601F091FA944B1B68232B03D1934B00221A6059E3904B1B682C2B40F0A6828E4B1B680F2B00F29B8201A252F823F0790B0000E10B000013
:400B40002B0C0000750C0000BF0C0000090D0000530D0000BF0D0000090E0000530E00009D0E0000E70E0000310F00007B0F0000C50F00001F1000007B4B0A221A6009E076
:400B8000794B1B68794A0021D154774B1B68013B754A1360764B1B685A1E734B1B689A42EEDB734B00221A60704803F00BFA0346DAB2704B1A70704B1B68012B0AD16E4B6E
:400BC00000221A606B4B1B78DBB25B42DBB2DAB2684B1A70654800210A2203F028FA43E2614B0A221A6009E05F4B1B685F4A0021D1545D4B1B68013B5B4A13605C4B1B685C
:400C00005A1E594B1B689A42EEDB594B00221A60564803F0D7F90346DAB2564B5A70534800210A2203F003FA1EE24F4B0A221A6009E04D4B1B684D4A0021D1544A4B1B687E
:400C4000013B494A13604A4B1B685A1E464B1B689A42EEDB464B00221A60444803F0B2F903469AB2434B5A80404800210A2203F0DEF9F9E13C4B0A221A6009E03A4B1B68FE
:400C80003A4A0021D154384B1B68013B364A1360374B1B685A1E344B1B689A42EEDB344B00221A60314803F08DF903469AB2314B9A802E4800210A2203F0B9F9D4E12A4B47
:400CC0000A221A6009E0284B1B68284A0021D154254B1B68013B244A1360254B1B685A1E214B1B689A42EEDB214B00221A601F4803F068F903469AB21E4BDA801B48002109
:400D00000A2203F094F9AFE1174B0A221A6009E0154B1B68154A0021D154134B1B68013B114A1360124B1B685A1E0F4B1B689A42EEDB0F4B00221A600C4803F043F9034677
:400D40009AB20C4B1A81094800210A2203F06FF98AE1054B0A221A601AE000BF1B82FF1FA882FF1FAC82FF1F2084FF1FB082FF1FBC82FF1F3484FF1FC482FF1F934B1B68CA
:400D8000934A0021D154914B1B68013B8F4A1360904B1B685A1E8D4B1B689A42EEDB8D4B00221A608A4803F00DF903469AB28A4B5A81874800210A2203F039F954E1834B8B
:400DC0000A221A6009E0814B1B68814A0021D1547E4B1B68013B7D4A13607E4B1B685A1E7A4B1B689A42EEDB7A4B00221A60784803F0E8F803469AB2774B9A81744800214E
:400E00000A2203F014F92FE1704B0A221A6009E06E4B1B686E4A0021D1546C4B1B68013B6A4A13606B4B1B685A1E684B1B689A42EEDB684B00221A60654803F0C3F80346D6
:400E40009AB2654BDA81624800210A2203F0EFF80AE15E4B0A221A6009E05C4B1B685C4A0021D154594B1B68013B584A1360594B1B685A1E554B1B689A42EEDB554B002270
:400E80001A60534803F09EF803469AB2524B1A824F4800210A2203F0CAF8E5E04B4B0A221A6009E0494B1B68494A0021D154474B1B68013B454A1360464B1B685A1E434BE6
:400EC0001B689A42EEDB434B00221A60404803F079F803469AB2404B5A823D4800210A2203F0A5F8C0E0394B0A221A6009E0374B1B68374A0021D154344B1B68013B334A1C
:400F00001360344B1B685A1E304B1B689A42EEDB304B00221A602E4803F054F803469AB22D4B9A822A4800210A2203F080F89BE0264B0A221A6009E0244B1B68244A002106
:400F4000D154224B1B68013B204A1360214B1B685A1E1E4B1B689A42EEDB1E4B00221A601B4803F02FF803469AB21B4BDA82184800210A2203F05BF876E0144B0A221A6024
:400F800009E0124B1B68124A0021D1540F4B1B68013B0E4A13600F4B1B685A1E0B4B1B689A42EEDB0B4B00221A60094803F00AF803469AB2084B1A83054800210A2203F0C5
:400FC00036F851E0014B0A221A6011E02084FF1FB082FF1FBC82FF1F3484FF1F804B1B68804A0021D1547E4B1B68013B7C4A13607D4B1B685A1E7A4B1B689A42EEDB7A4BD7
:4010000000221A60774802F0DDFF03469AB2774B5A83744800210A2203F009F824E0704B0A221A6009E06E4B1B686E4A0021D1546B4B1B68013B6A4A13606B4B1B685A1E81
:40104000674B1B689A42EEDB674B00221A60654802F0B8FF03469AB2644B9A83614800210A2202F0E4FF00BF614B1B680133604A1360AEE05F4B1B685B2B1BD05D4B1B6830
:401080005D2B17D05B4B1B682D2B03D15A4B01221A600FE0574B1B680A2B0BD0524B1B68544A1268D1B24F4AD1544F4B1B6801334D4A13604E4B1B68102B40F08A804D4B09
:4010C0001B689BB2303B9BB29AB2484BDA83464B00221A60494B1B68002B70D1484B1B68092B3ADC414B5B881AB2464B1B681344444A13603D4B9B881AB2434B1B68134496
:40110000414A1360394BDB881BB2A3F24653002B0ADD364BDB881BB2A3F246523B4B1B6813443A4A136010E0304BDB881BB2A3F24653002B09DC2D4BDB881BB203F6CA0242
:40114000324B1B681344314A1360FFF715FC2C4B1B6801332A4A136031E0294B1B680A2B2DD1284B1B682A4A82FB03129210DB17D31A244A1360244B1B68254A82FB031282
:401180009210DB17D31A204A1360204B1B68204A82FB03129210DB17D31A1C4A13601D4B1B78184601F050FC1A4B1B78184601F095FD124B01221A60012002F09DFA094829
:4011C00000210A2202F033FF094B1B680133084A136002F0C9F9104B00221A7080BD00BF2084FF1FB082FF1FBC82FF1F3484FF1FAC82FF1FA882FF1FC482FF1FD882FF1F43
:40120000C882FF1FCC82FF1FD082FF1FD482FF1F676666665081FF1F1B82FF1F80B483B000AF78600C37BD465DF8047B704700BF80B582B000AF2A4B1B78002B0AD100F021
:4012400065FD0346002B48D000F09EFE244B01221A7042E000F008FF0346002B3DD000F015FF0346FB71FB790D2B02D0FB790A2B10D11C4B1B881A461B4B002199541B483C
:40128000194902F0DCFE174B00221A80184B01221A7022E0FB79082B02D0FB797F2B0AD1104B1B88002B06D00E4B1B88013B9AB20C4B1A8011E00B4B1B883E2B03D921207A
:4012C00000F0B6FE09E0074B1B885A1C91B2054A11801946044AFB7953540837BD4680BDEB82FF1FEC82FF1F2083FF1F9483FF1F1D82FF1F80B400AFFEE700BF80B586B0D0
:4013000000AF224B7B61224B3B61204B7B6135E03B691B68FB603B695B68BB603B699B683B6000237B600CE0FB681A68BB681A60BB680433BB60FB680433FB607B6804331A
:401340007B607A683B689A42EED13B69DB683B6000237B6008E0BB6800221A60BB680433BB607B6804337B607A683B689A42F2D13B6910333B617B69013B7B617B69002B2F
:40138000C6D102F023FEFEF77DFEFEE701000000DC42000080B582B000AF184B184A1A60184A184B1B6843F40073136000237B600FE07B68032B04D8134A7B6852F823309E
:4013C00000E0124B12497A6841F822307B6801337B607B682F2BECD90E4B1B78DAB20E4B1A700E4B0A4A1A6000F088F901F004F80B4B00221A600837BD4680BD0CED00E0CA
:401400000004FA0514ED00E000000000F51200000080FF1FBC7600400481FF1F08ED00E00081FF1F80B582B000AF78603960786800213A6802F0FBFD0837BD4680BD00BF48
:4014400080B584B000AFF860B9607A60F868B9687A6802F0E1FD1037BD4680BD80B483B000AF0346FB71FEE780B487B000AF7860396000233B6100237B6127E07B699B00D0
:401480007A6813441B68BB60BB68FB73BB6823F0FF03BB6014E03B695B003A6813441B781A46BB68134419463B695B003A6813445B780B703B6901333B61FB7B013BFB73DF
:4014C000FB7B002BE7D17B6901337B617B692B2BD4D91C37BD465DF8047B704780B582B000AF3C4B04221A803B4B18221A703B4B3A221A803A4B18221A703A4B3B221A80EF
:40150000394B18221A70394B81221A80384B18221A70384B00221A80374B1B221A70374B06221A70364B52221A70364B364A1278D2B21A70354B40F619121A80344B41F25A
:4015400051221A800023FB7019237B6014E0FB785B00DAB22F4B1B78DBB203F00103DBB21343DBB203F00303FB704FF4F07000F033FF7B68013B7B607B68002B02D0FB78F4
:40158000032BE4D17B68002B02D10320FFF766FF214B4FF480721A801F4B07221A701F4B00221A701E4B48221A701B4B00221A701C4B00221A701C4B02221A701B4A1B4B19
:4015C0001B78DBB243F01F03DBB213700837BD4680BD00BF80400040824000408440004086400040884000408A4000408C4000408E4000409040004092400040004300404B
:4016000000420040A14600400F0100492242004020420040254200400440004006400040084000400940004001400040A243004080B483B000AF234B1B78FB71224B1B7877
:40164000BB71224B1B787B71214AFB7903F00703DBB213701F4AFB791B09DBB213701A4ABB7943F00303DBB21370184A7B7943F00303DBB21370184BE0221A70174B34222E
:401680001A70174B01221A70164B40221A70164B40221A70154BE7221A70154B20221A70144BE1221A70094A7B791370064ABB791370114B44221A700C37BD465DF8047BB5
:4016C000704700BFCF010049F8460040F94600406E5800406F5800400D5100401D5100402D510040095900400B590040285B00402B5B0040585B00407658004080B586B00C
:4017000000AF72B6584B61221A70FFF7E7FE564B01221A70554A554B1B78DBB243F00403DBB213700023FB7513E0FA7D13465B0013445B004E4A13443B613B691A683B6998
:401740009B889BB210461946FFF76CFEFB7D0133FB75FB7D062BE8D90023FB751CE0FA7D13469B0013445B00424A1344FB60FB681B68BB60FB685B687B60FB681A7A5B7AA6
:401780001B0213437B807B88B86879681A46FFF757FEFB7D0133FB75FB7D002BDFD04FF090403549FFF760FE34480421FFF73AFE334834490422FFF743FE334A324B1B780C
:4017C000DBB243F00203DBB21370304A2F4B1B78DBB243F00203DBB213702D4A2C4B1B78DBB243F04003DBB213702A4A294B1B78DBB243F01003DBB21370274827490822BD
:40180000FFF71EFE264827490822FFF719FE264826490A22FFF714FE254826490822FFF70FFE254825490A22FFF70AFE244825490822FFF705FE244B84221A70234B4422F2
:401840001A70234A224B1B78DBB243F00803DBB21370FFF7EDFE1F480D490E22FFF7F0FD1837BD4680BD00BF00480040E84600407C410000A8410000B0000048007600404D
:4018800008760040BC1000480350014013500140A0430040C24300400251004084100048C25100408C100048F05100409410004812510040A010004820510040A810004857
:4018C00032510040B41000485B0E0140DB14014022430040B043004080B500AF022001214FF4804241F6FF7300F0E8FC03461A460A4B1A701020012141F6FF7241F6FF7392
:4019000000F010FD03461A46054B1A70054800F03DFD002000F04CFD80BD00BFF482FF1FF582FF1FD91A000080B582B000AF444B1B78184600F0D4FD424B1B78184600F07A
:40194000CFFD414B1B78FF2B05D100F0D7FE03461A463D4B1A703C4B1A783B4B1B78104610211A46062300F0F7FE374B1A78374B9BB2104645F6A2311A4600F02DFF304B97
:401980001A78314B1B781046194600F049FE304B1B78FF2B05D100F0B1FE03461A462C4B1A702B4B1A782A4B1B78104610211A46072300F0D1FE264B1978244B9AB2254B36
:4019C0009BB2084611461A4600F006FF1D4B1A781F4B1B781046194600F022FE184B1B781846012100F036FD164B1B781846012100F030FD00F0F8FC0346FB71164A164B60
:401A00001B78DBB243F02003DBB21370FB79184600F0EEFC114A114B1B78DBB243F00103DBB213700D4A0D4B1B78DBB243F00203DBB213700A4B01221A600837BD4680BDCE
:401A4000F482FF1FF582FF1F6881FF1FF882FF1F6981FF1FC484FF1F916400407665004080E200E080B500AF074B1B68002B04D1FFF732FF044B01221A60FFF755FF00F098
:401A80001FFB024B1B7880BDF082FF1F6F64004080B500AF00F0C2FB80BD00BF80B483B000AF0346FB80FB88C3F10703084A32F813309AB2074B1B889BB29BB2D31A9BB2D0
:401AC0009BB21BB218460C37BD465DF8047B7047C484FF1F8A85FF1F80B400AFBD465DF8047B704780B500AF00F050F8044800F01DF8072000F02CF800F03CF880BD00BFD1
:401B0000051B000080B400AF064B1B780133DAB2044B1A70044B01221A70BD465DF8047B704700BF0C82FF1F1F82FF1F80B485B000AF7860054B1B68FB60FB6860337A687B
:401B40001A601437BD465DF8047B704708ED00E080B483B000AF0346FB71054AFB795B01DBB213700C37BD465DF8047B704700BF08E400E080B400AF034B4FF480721A6007
:401B8000BD465DF8047B704700E100E080B400AF034B4FF480721A60BD465DF8047B704780E100E080B500AF214A214B1B78DBB203F00103DBB213701E4A1E4B1B78DBB254
:401BC00023F00303DBB213701B4A1B4B1B78DBB223F03003DBB21370174A174B1B78DBB243F03003DBB21370134A134B1B78DBB223F00F03DBB213700F4A0F4B1B78DBB23F
:401C000043F00F03DBB213700C4A0C4B1B78DBB243F00103DBB2137042F20F7000F054F842F20F7000F062F8082000F03DF880BD184F00401A4F0040234F0040194F00401B
:401C400080B400AF0D4A0D4B1B78DBB243F00403DBB213700A4A0A4B1B78DBB243F00403DBB21370074A074B1B78DBB243F00103DBB21370BD465DF8047B7047A343004097
:401C8000B3430040184F004080B500AF054B1B78002B04D1FFF786FF024B01221A70FFF7CFFF80BD0883FF1F80B483B000AF0346FB71044AFB7913700C37BD465DF8047B37
:401CC000704700BF1B4F004080B485B000AF0346FB80FB88FB81044AFB8913801437BD465DF8047B704700BF1C4F004080B483B000AF0346FB80044AFB8813800C37BD46BD
:401D00005DF8047B704700BF1E4F004080B400AF034B1B78DBB21846BD465DF8047B70470F85FF1F80B483B000AF0346FB71FA79064913465B0013449B000B445B78DBB2DB
:401D400018460C37BD465DF8047B70471485FF1F80B485B000AF0346FB710023FB81FB79002B1BD0FB79082B18D8104AFB791B0113441B78DBB29BB203F00F03FB81FB893D
:401D80001B029AB20949FB791B010B445B78DBB29BB21343FB81FB89023BFB81FB8918461437BD465DF8047B704700BFFC5F0040B0B485B000AF03463960FB711346BB808E
:401DC000FB79002B66D0FB79082B63D8B988FA79324813465B0013449B000344DB889BB2C3F5007399420BD9FA792C4913465B0013449B000B44DB889BB2C3F50073BB8084
:401E0000274CF979BB881B0A9BB2D8B2FA79234D13465B0013449B002B44DB78DBB20343DAB20B0123441A701D4AFB79B988C9B21B0113440A465A703B68002B13D00023DF
:401E4000FB810CE01748FB79FA8939680A4412781B01034408331A70FB890133FB81FA89BB889A42EED3FA790C4913465B0013449B000B4400225A700948F979FA79074C3A
:401E800013465B0013449B0023445B79DAB20B0103449A701437BD46B0BC70471485FF1FFC5F00407060004080B584B000AF03463960FB711346BB803B68002B30D0FB7949
:401EC000002B2DD0FB79082B2AD8FB791846FFF73FFF03461A46BB88934205D9FB791846FFF736FF034600E0BB88BB800023FB810DE0FB893A6813440D49FA7912010A4495
:401F000008321278D2B21A70FB890133FB81FA89BB889A42EDD3FB79184600F00BF801E00023BB80BB8818461037BD4680BD00BF7060004090B482B000AF0346FB71FB79F0
:401F4000002B19D0FB79082B16D8FA790C4913465B0013449B000B4400225A700948F979FA79074C13465B0013449B0023445B79DAB20B0103449A700837BD4690BC704777
:401F80001485FF1FFC5F004080B582B000AF0023BB71224B00221A70214B00221A70204B00225A700023FB7110E0FB791D4AD35C7B717B79002B06D07B79082B03D87B7982
:401FC0001846FFF7B7FFFB790133FB71FB79012BEBD9154B1B78DBB2002B18D0114B1B78DBB2002B13D0114B1B78DBB2002B0ED00D4B1B78DBB2082B09D80A4B1B78DBB2BC
:40200000082B04D8094B1B78DBB2082B01D90123BB71BB7918460837BD4680BD0983FF1FD484FF1FE084FF1FD884FF1FDC84FF1F80B584B000AF0346FB71FB79FB73084B13
:402040001B781A46074B9B5CDAB207F10F03104619460122FFF7ACFE1037BD4680BD00BF0983FF1FD884FF1F80B500AF054B1B781A46054B9B5CDBB21846FFF753FE0346C3
:40208000184680BD0983FF1FE084FF1F80B582B000AF094B1B781A46084B9B5CFB71FA79BB1D104619460122FFF7FEFEBB7918460837BD4680BD00BF0983FF1FE084FF1F35
:4020C00080B500AF054B1B78002B04D100F008F8024B01221A7000F019F880BD0A83FF1F80B500AF074A074B1B78DBB243F00603DBB213700C2000F069F8034B00221A80CC
:4021000080BD00BF095900409085FF1F80B582B000AF00F069F90346FB71244A234B1B78DBB243F00203DBB21370214A204B1B78DBB243F00203DBB213701E4B1B78BB7107
:40214000BB7943F00203BB71BB7943F00103BB71184ABB791370184B18221A70174A174B1B78DBB243F04003DBB21370134A134B1B78DBB223F00303DBB21370104BC8223E
:402180001A70104B02221A700F4A0F4B1B78DBB243F00803DBB213700A2000F057FBFB79184600F025F90837BD4680BDAB430040BB4300400B5900400E5900400D59004043
:4021C00008590040164600402F5B004080B584B000AF0346FB71FB790A2B07D00C2B02D0082B06D008E0C223FB730BE08223FB7308E04223FB7305E0C223FB73002000F03D
:4022000019FB00BF044AFB7B1370FB79184600F015F81037BD4680BD0A59004080B400AF054A054B1B78DBB243F00103DBB21370BD465DF8047B70470859004080B584B00A
:4022400000AF0346FB71FB790A2B08D00C2B02D0082B08D00BE04FF48053FB600DE04FF48063FB6009E04FF48073FB6005E00023FB60002000F0DEFA00BF0C4B00221A8004
:40228000FB6842F2107202FB03F303F6C413084A82FB0312D212DB17D31A064A1360064B00221A801037BD4680BD00BF8885FF1FAD8BDB688C85FF1F8A85FF1F90B585B009
:4022C00002AF0446084611461A462346FB710346BB710B46BB8013467B80114B01221A700F4B1878F979BA790023009300230193012300F0B3F90A4B1978BA887B88084676
:4023000011461A4600F04EF9054B1B781846022100F018F9024B1B7818460C37BD4690BD6A81FF1F90B585B002AF0446084611461A462346FB710346BB710B46BB801346C7
:402340007B80114B00221A700F4B1878F979BA790023009300230193002300F07FF90A4B1978BA887B88084611461A4600F01AF9054B1B781846022100F0E4F8024B1B7890
:4023800018460C37BD4690BD6B81FF1F80B485B000AF7860054B1B68FB60FB6840337A681A601437BD465DF8047B704708ED00E080B483B000AF0346FB71054AFB795B013A
:4023C000DBB213700C37BD465DF8047B704700BF00E400E0000000000230800803D000BF01380046FCD17047EFF3108072B6704780F31088704700BF80B483B000AF134BE4
:402400007F221A70124B80221A707F23FB710CE0FB79DB0003F1804303F5F043FA79013AD2B21A70FB79013BFB71FB79002BEFD1FB79DB0003F1804303F5F04300221A70A9
:402440000C37BD465DF8047B704700BF6D81FF1F6C81FF1F80B485B000AF03460A46FB711346BB710123FB60FB79172B2FD8BB79002B0ED0FB791A01184B1344FA791101CC
:40248000164A0A441278D2B242F02002D2B21A700DE0FB791A01114B1344FA7911010F4A0A441278D2B222F02002D2B21A70FB791A010A4B1344FA791101084A0A44127869
:4024C000D2B242F00102D2B21A700023FB60FB6818461437BD465DF8047B70471070004080B485B000AF0346FB710123FB60FB79172B1DD8FB791A01114B1344FA7911017F
:402500000F4A0A441279D2B242F00402D2B21A71FB791A010A4B1344FA791101084A0A441278D2B242F00102D2B21A700023FB60FB6818461437BD465DF8047B704700BF16
:402540001070004080B485B000AF03460A46FB711346BB710123FB60FB79172B18D8FB791A010F4B13441B78DBB223F00E03FB72FB791A010A4B1344BA7902F00702D2B2F6
:402580005200D1B2FA7A0A43D2B21A700023FB60FB6818461437BD465DF8047B704700BF1070004080B485B000AF0346FB710B46BB8013467B800123FB60BB8841F6FF72C9
:4025C000934202D14FF40053BB807B8841F6FF72934202D14FF400537B80FB79172B17D8FB79DB0003F1804303F5EC430433BB60BB68BA881A80FB79DB0003F1804303F55D
:40260000EC430633BB60BB687A881A800023FB60FB6818461437BD465DF8047B704700BF80B485B000AF03460A46FB711346BB710123FB60FB79172B07D8FB791A01064BEB
:402640001344BA795A720023FB60FB6818461437BD465DF8047B70471070004090B484B000AF0446084611461A462346FB710346BB710B467B7113463B710123FB60FB7937
:40268000172B34D8FB79DB0003F1804303F5EC43BA7902F07F02D1B27A79D201D2B20A43D2B21A70FB79DB0003F1804303F5EC433A7E1201D1B23A7902F00F02D2B20A43CF
:4026C000D2B25A70FB79DB0003F1804303F5EC433A7F02F00F02D2B29A70FB79DB0003F1804303F5EC430022DA700023FB60FB6818461037BD4690BC704700BF80B582B0CA
:4027000000AFFF23FB71FFF76FFE0346BB71104B1B78182B12D90F4B1B78FB710C4B1B78013BDAB20A4B1A70FB79DB0003F1804303F5F0431B78DAB2064B1A70BB791846C1
:40274000FFF756FEFB7918460837BD4680BD00BF6C81FF1F6D81FF1F90B484B000AF0446084611461A462346FB710346BB800B46BB711346FB700123FB60FB795BB2002BAD
:4027800023DBBB8823F47F6323F00F039BB2002B1BD1FB79DB0003F1804303F5F043BB60BB68BA881A80FB79DB0003F1804303F5F043BA799A70FB79DB0003F1804303F59F
:4027C000F043FA78DA700023FB60FB6818461037BD4690BC704700BF80B485B000AF0346FB710B46BB8013467B800123FB60FB795BB2002B17DBFB79DB0003F1804303F5D7
:40280000F0430433BB60BB68BA881A80FB79DB0003F1804303F5F0430633BB60BB687A881A800023FB60FB6818461437BD465DF8047B704780B483B000AF0346FB7101BE2E
:402840000C37BD465DF8047B704700BF80B582B000AF0346FB80FB88044A127802FB03F31846FFF7B9FD0837BD4680BD7C81FF1F80B584B000AF03463960FB710F4B1B68B9
:40288000FB60FB791F2B02D90020FFF7D3FFFB7903F01F0310339B00FA6813441B68BB60FB7903F01F0310339B00FA6813443A681A60BB6818461037BD4680BD08ED00E065
:4028C00080B582B000AF03460A46FB711346BB71BB79072B02D90020FFF7ACFFFB791F2B02D90020FFF7A6FFFB7903F01F0303F1604303F56443BA795201D2B21A70083750
:40290000BD4680BD80B500AF054B1B78002B04D100F008F8024B01221A7000F061F880BD0B83FF1F80B582B000AF284A274B1B78DBB243F00203DBB21370254B1B78DBB282
:4029400023F07003FB71224AFB7943F04003DBB21370204A1F4B1B78DBB223F03003DBB213701C4A1B4B1B78DBB243F03003DBB21370184A174B1B78DBB223F00F03DBB2BD
:402980001370144A134B1B78DBB243F00F03DBB21370FF2000F048F8AF2000F055F8002000F062F80C4A0C4B1B78DBB243F00103DBB21370094A094B1B78DBB243F001038C
:4029C000DBB213700837BD4680BD00BF004F0040024F00400B4F0040A3430040014F004080B400AF0D4A0D4B1B78DBB243F00103DBB213700A4A0A4B1B78DBB243F0010320
:402A0000DBB21370074A074B1B78DBB243F00103DBB21370BD465DF8047B7047A3430040B3430040004F004080B483B000AF0346FB71044BFA7992B21A800C37BD465DF8FD
:402A4000047B7047044F004080B483B000AF0346FB71044BFA7992B21A800C37BD465DF8047B7047064F004080B483B000AF0346FB71044AFB7913700C37BD465DF8047B92
:402A8000704700BF034F004080B500AF00F078F8044800F045F8072000F054F800F064F880BD00BFA92A000080B500AF0020FEF7F5FF03469AB2184B1A800120FEF7EEFF51
:402AC00003469AB2144B5A800220FEF7E7FF03469AB2114B9A800320FEF7E0FF03469AB20D4BDA800420FEF7D9FF03469AB20A4B1A810520FEF7D2FF03469AB2064B5A81A0
:402B00000620FEF7CBFF03469AB2034B9A81034B01221A7080BD00BF2082FF1F1E82FF1F80B485B000AF7860054B1B68FB60FB6864337A681A601437BD465DF8047B7047F0
:402B400008ED00E080B483B000AF0346FB71054AFB795B01DBB213700C37BD465DF8047B704700BF09E400E080B400AF034B4FF400721A60BD465DF8047B704700E100E07A
:402B800080B400AF034B4FF400721A60BD465DF8047B704780E100E080B500AF054B1B78002B04D100F008F8024B01221A7000F061F880BD0C83FF1F80B582B000AF284A7A
:402BC000274B1B78DBB243F00203DBB21370254B1B78DBB223F07003FB71224AFB7943F02003DBB21370204A1F4B1B78DBB223F03003DBB213701C4A1B4B1B78DBB243F0CA
:402C00003003DBB21370184A174B1B78DBB223F00F03DBB21370144A134B1B78DBB243F00F03DBB21370FF2000F048F8AF2000F055F8002000F062F80C4A0C4B1B78DBB275
:402C400043F00203DBB21370094A094B1B78DBB243F00103DBB213700837BD4680BD00BF0C4F00400E4F0040174F0040A34300400D4F004080B400AF0D4A0D4B1B78DBB26E
:402C800043F00203DBB213700A4A0A4B1B78DBB243F00203DBB21370074A074B1B78DBB243F00103DBB21370BD465DF8047B7047A3430040B34300400C4F004080B483B0C5
:402CC00000AF0346FB71044BFA7992B21A800C37BD465DF8047B7047104F004080B483B000AF0346FB71044BFA7992B21A800C37BD465DF8047B7047124F004080B483B01C
:402D000000AF0346FB71044AFB7913700C37BD465DF8047B704700BF0F4F004080B500AF054B02221A6001200449FFF7A1FD01200721FFF7C5FD80BD80E100E0812E0000BA
:402D400080B582B000AF0F2000F086F800F074F8FFF74AFB0346FB71084A084B1B78DBB243F01003DBB21370FB791846FFF740FB034B02221A600837BD4680BD9464004093
:402D800000E100E080B500AF00F0DCF94FF4004000F004FA074B00221A60074B1B78002B04D1FFF7BBFF044B01221A70FFF7C8FF80BD00BF1083FF1F0D83FF1F80B582B03A
:402DC00000AF0D4B02221A6000F0F8F90346FB80FB88A3F500439BB2BB80B7F90420074B1B6813443B60064B02221A603B6818460837BD4680BD00BF80E100E01083FF1FE8
:402E000000E100E080B582B000AF7860074B02221A604FF4004000F0C1F9054A7B681360044B02221A600837BD4680BD80E100E01083FF1F00E100E080B400AF054B1B783C
:402E4000DBB203F00F03DBB21846BD465DF8047B704700BF6464004080B483B000AF0346FB71FB7943F00703FB71044AFB7913700C37BD465DF8047B704700BF846400409B
:402E800080B483B000AF144B1B78FB71FB7903F00103002B07D0114B1B6803F5FF437F330E4A13600AE0FB7903F00203002B05D00A4B1B68A3F50043084A1360FB7903F066
:402EC0000403002B02D0054B00221A600C37BD465DF8047B704700BF646400401083FF1F80B500AF054B04221A6002200449FFF7BFFC02200721FFF7E3FC80BD80E100E008
:402F00004530000080B582B000AF0F2000F086F800F074F8FFF768FA0346FB71084A084B1B78DBB243F01003DBB21370FB791846FFF75EFA034B04221A600837BD4680BD58
:402F40009765004000E100E080B500AF00F0D0F94FF4004000F0F8F9074B00221A60074B1B78002B04D1FFF7BBFF044B01221A70FFF7C8FF80BD00BF1883FF1F1483FF1FAD
:402F800080B582B000AF0D4B04221A6000F0ECF90346FB80FB88A3F500439BB2BB80B7F90420074B1B6813443B60064B04221A603B6818460837BD4680BD00BF80E100E078
:402FC0001883FF1F00E100E080B582B000AF7860074B04221A604FF4004000F0B5F9054A7B681360044B04221A600837BD4680BD80E100E01883FF1F00E100E080B400AFA5
:40300000054B1B78DBB203F00F03DBB21846BD465DF8047B704700BF6765004080B483B000AF0346FB71FB7943F00703FB71044AFB7913700C37BD465DF8047B704700BF1A
:403040008765004080B483B000AF144B1B78FB71FB7903F00103002B07D0114B1B6803F5FF437F330E4A13600AE0FB7903F00203002B05D00A4B1B68A3F50043084A1360DF
:40308000FB7903F00403002B02D0054B00221A600C37BD465DF8047B704700BF676500401883FF1F80B582B000AF1C4B1B78DBB223F00703FB71194AFB791370174B1B78EF
:4030C000DBB223F00303FB71144AFB79137000F0B1F84FF4004000F08DF84FF4004000F05DF8002000F03EF800F04CF84FF4004000F090F8FFF778F90346BB71084A084B1A
:403100001B78DBB243F01003DBB21370BB791846FFF76EF90837BD4680BD00BF796400409E64004080B400AF054A054B1B78DBB263F07F03DBB21370BD465DF8047B704778
:403140007964004080B500AF054B1B78002B04D1FFF7A8FF024B01221A70FFF7E3FF80BD1C83FF1F80B483B000AF0346FB71044AFB7913700C37BD465DF8047B704700BF62
:403180008E64004080B400AF034B1B78DBB21846BD465DF8047B70476E64004080B483B000AF0346FB80044AFB8813800C37BD465DF8047B704700BF106A004080B400AF23
:4031C000044B1B78044B1B889BB21846BD465DF8047B704708650040906A004080B400AF034B1B889BB21846BD465DF8047B7047906A004080B483B000AF0346FB80044A6C
:40320000FB8813800C37BD465DF8047B704700BF506A004080B483B000AF0346FB80044AFB8813800C37BD465DF8047B704700BF706A004080B500AF01E0FFF7CFFFFFF787
:40324000A1FF034603F04003002BF6D180BD00BF80B582B000AF1C4B1B78DBB223F00703FB71194AFB791370174B1B78DBB223F00303FB71144AFB79137000F0B1F84FF489
:40328000004000F08DF84FF4004000F05DF8002000F03EF800F04CF84FF4004000F090F8FFF7A2F80346BB71084A084B1B78DBB243F01003DBB21370BB791846FFF798F8E4
:4032C0000837BD4680BD00BF7C6400409565004080B400AF054A054B1B78DBB263F07F03DBB21370BD465DF8047B70477C64004080B500AF054B1B78002B04D1FFF7A8FF9D
:40330000024B01221A70FFF7E3FF80BD1D83FF1F80B483B000AF0346FB71044AFB7913700C37BD465DF8047B704700BF8565004080B400AF034B1B78DBB21846BD465DF8EF
:40334000047B70476565004080B483B000AF0346FB80044AFB8813800C37BD465DF8047B704700BF086A004080B400AF044B1B78044B1B889BB21846BD465DF8047B70479D
:4033800004650040886A004080B400AF034B1B889BB21846BD465DF8047B7047886A004080B483B000AF0346FB80044AFB8813800C37BD465DF8047B704700BF486A004033
:4033C00080B483B000AF0346FB80044AFB8813800C37BD465DF8047B704700BF686A004080B500AF01E0FFF7CFFFFFF7A1FF034603F04003002BF6D180BD00BF80B500AF7D
:4034000000F048F8044800F015F8072000F024F800F034F880BD00BF1D34000080B400AF034B01221A70BD465DF8047B704700BF1B82FF1F80B485B000AF7860054B1B68CE
:40344000FB60FB6858337A681A601437BD465DF8047B704708ED00E080B483B000AF0346FB71054AFB795B01DBB213700C37BD465DF8047B704700BF06E400E080B400AFC2
:40348000034B40221A60BD465DF8047B704700BF00E100E080B400AF034B40221A60BD465DF8047B704700BF80E100E080B500AF054B1B78002B04D100F008F8024B012212
:4034C0001A7000F023F880BD1E83FF1F80B400AF094B72221A70094B20221A70084B06221A70084B47221A70074B02221A70BD465DF8047B704700BF8B65004088650040D1
:403500002B6400403B6400408364004080B582B000AFFEF769FF0346FB71104A0F4B1B78DBB243F02003DBB213700D4A0C4B1B78DBB243F01003DBB213700A4A094B1B78F5
:40354000DBB243F01003DBB2137000F037F8FB791846FEF74DFF0837BD4680BD9B650040986500409364004080B400AF00231846BD465DF8047B704780B483B000AF0023D8
:40358000FB710C4B1B78BB71BB7903F02003002B09D0094B1B78FB71BB7903F01E03002B01D00023FB71FB7918460C37BD465DF8047B7047686500404864004080B400AF96
:4035C000094A094B1B78DBB243F00803DBB21370064A064B1B78DBB243F00803DBB21370BD465DF8047B7047A2430040B243004080B483B000AF0346FB71044AFB791370AF
:403600000C37BD465DF8047B704700BF7864004080B485B000AF0346FB710B4B1B78DBB223F04003FB730849FB799B01DBB203F04003DAB2FB7B1343DBB20B701437BD4605
:403640005DF8047B704700BF3051004080B485B000AF0346FB710B4B1B78DBB223F00803FB730849FB79DB00DBB203F00803DAB2FB7B1343DBB20B701437BD465DF8047BC3
:40368000704700BFC051004080B485B000AF0346FB71094B1B78DBB203F07F03FB730649FB79DB01DAB2FB7B1343DBB20B701437BD465DF8047B70473051004080B485B01D
:4036C00000AF0346FB710B4B1B78DBB223F00403FB730849FB799B00DBB203F00403DAB2FB7B1343DBB20B701437BD465DF8047B704700BFC051004080B485B000AF0346D7
:40370000FB710B4B1B78DBB223F00403FB730849FB799B00DBB203F00403DAB2FB7B1343DBB20B701437BD465DF8047B704700BF0051004080B485B000AF0346FB71094B8E
:403740001B78DBB203F07F03FB730649FB79DB01DAB2FB7B1343DBB20B701437BD465DF8047B70472051004080B485B000AF0346FB710B4B1B78DBB223F04003FB73084965
:40378000FB799B01DBB203F04003DAB2FB7B1343DBB20B701437BD465DF8047B704700BF2051004080B485B000AF0346FB710B4B1B78DBB223F00803FB730849FB79DB001E
:4037C000DBB203F00803DAB2FB7B1343DBB20B701437BD465DF8047B704700BF0051004081F0004102E000BF83F0004330B54FEA41044FEA430594EA050F08BF90EA020FE4
:403800001FBF54EA000C55EA020C7FEA645C7FEA655C00F0E2804FEA5454D4EB5555B8BF6D420CDD2C4480EA020281EA030382EA000083EA010180EA020281EA0303362DA9
:4038400088BF30BD11F0004F4FEA01314FF4801C4CEA113102D0404261EB410113F0004F4FEA03334CEA133302D0524263EB430394EA050F00F0A780A4F10104D5F1200EB2
:403880000DDB02FA0EFC22FA05F2801841F1000103FA0EF2801843FA05F359410EE0A5F120050EF1200E012A03FA0EFC28BF4CF0020C43FA05F3C01851EBE37101F00045CC
:4038C00007D54FF0000EDCF1000C7EEB00006EEB0101B1F5801F1BD3B1F5001F0CD349085FEA30004FEA3C0C04F101044FEA445212F5800F80F09A80BCF1004F08BF5FEAEB
:40390000500C50F1000041EB045141EA050130BD5FEA4C0C404141EB010111F4801FA4F10104E9D191F0000F04BF01460020B1FA81F308BF2033A3F10B03B3F120020CDAC2
:403940000C3208DD02F1140CC2F10C0201FA0CF021FA02F10CE002F11402D8BFC2F1200C01FA02F120FA0CFCDCBF41EA0C019040E41AA2BF01EB0451294330BD6FEA0404D3
:403980001F3C1CDA0C340EDC04F11404C4F1200220FA04F001FA02F340EA030021FA04F345EA030130BDC4F10C04C4F1200220FA02F001FA04F340EA0300294630BD21FA0D
:4039C00004F0294630BD94F0000F83F4801306BF81F480110134013D4EE77FEA645C18BF7FEA655C29D094EA050F08BF90EA020F05D054EA000C04BF1946104630BD91EA61
:403A0000030F1EBF0021002030BD5FEA545C05D14000494128BF41F0004130BD14F580043CBF01F5801130BD01F0004545F0FE4141F470014FF0000030BD7FEA645C1ABF10
:403A4000194610467FEA655C1CBF0B46024650EA013406BF52EA033591EA030F41F4002130BD00BF90F0000F04BF0021704730B54FF4806404F132044FF000054FF00001D7
:403A800050E700BF90F0000F04BF0021704730B54FF4806404F1320410F0004548BF40424FF000013EE700BF42004FEAE2014FEA31014FEA02701FBF12F07F4393F07F4F56
:403AC00081F06051704792F0000F14BF93F07F4F704730B54FF4607401F0004521F0004120E700BF50EA010208BF704730B54FF000050AE050EA010208BF704730B511F0C8
:403B0000004502D5404261EB41014FF4806404F132045FEA915C3FF4DCAE4FF003025FEADC0C18BF03325FEADC0C18BF033202EBDC02C2F1200300FA03FC20FA02F001FAB5
:403B400003FE40EA0E0021FA02F11444C1E600BF70B54FF0FF0C4CF4E06C1CEA11541DBF1CEA135594EA0C0F95EA0C0F00F0DEF82C4481EA030621EA4C5123EA4C5350EA25
:403B8000013518BF52EA033541F4801143F4801338D0A0FB02CE4FF00005E1FB02E506F00042E0FB03E54FF00006E1FB03569CF0000F18BF4EF0010EA4F1FF04B6F5007F84
:403BC00064F5407404D25FEA4E0E6D4146EB060642EAC62141EA55514FEAC52040EA5E504FEACE2EB4F1FD0C88BFBCF5E06F1ED8BEF1004F08BF5FEA500E50F1000041EB7F
:403C0000045170BD06F0004646EA010140EA020081EA0301B4EB5C04C2BFD4EB0C0541EA045170BD41F480114FF0000E013C00F3AB8014F1360FDEBF002001F0004170BD28
:403C4000C4F10004203C35DA0C341BDC04F11404C4F1200500FA05F320FA04F001FA05F240EA020001F0004221F0004110EBD37021FA04F642EB06015EEA430E08BF20EA6E
:403C8000D37070BDC4F10C04C4F1200500FA04F320FA05F001FA04F240EA020001F0004110EBD37041F100015EEA430E08BF20EAD37070BDC4F1200500FA05F24EEA020E48
:403CC00020FA04F301FA05F243EA020321FA04F001F0004121FA04F220EA020000EBD3705EEA430E08BF20EAD37070BD94F0000F0FD101F00046400041EB010111F4801F6D
:403D000008BF013CF7D041EA060195F0000F18BF704703F00046520043EB030313F4801F08BF013DF7D043EA0603704794EA0C0F0CEA135518BF95EA0C0F0CD050EA410681
:403D400018BF52EA4306D1D181EA030101F000414FF0000070BD50EA410606BF1046194652EA430619D094EA0C0F02D150EA013613D195EA0C0F05D152EA03361CBF1046F8
:403D800019460AD181EA030101F0004141F0FE4141F470014FF0000070BD41F0FE4141F4780170BD70B54FF0FF0C4CF4E06C1CEA11541DBF1CEA135594EA0C0F95EA0C0F78
:403DC00000F0A7F8A4EB050481EA030E52EA03354FEA013100F088804FEA03334FF0805545EA131343EA12634FEA022245EA111545EA10654FEA00260EF000419D4208BF35
:403E0000964244F1FD0404F5407402D25B084FEA3202B61A65EB03055B084FEA32024FF480104FF4002CB6EB020E75EB030E22BFB61A754640EA0C005B084FEA3202B6EBB4
:403E4000020E75EB030E22BFB61A754640EA5C005B084FEA3202B6EB020E75EB030E22BFB61A754640EA9C005B084FEA3202B6EB020E75EB030E22BFB61A754640EADC0047
:403E800055EA060E18D04FEA051545EA16754FEA06164FEAC30343EA52734FEAC2025FEA1C1CC0D111F4801F0BD141EA00014FF000004FF0004CB6E711F4801F04BF0143A7
:403EC0000020B4F1FD0C88BFBCF5E06F3FF6AFAEB5EB030C04BFB6EB020C5FEA500C50F1000041EB045170BD0EF0004E4EEA113114EB5C04C2BFD4EB0C0541EA045170BD43
:403F000041F480114FF0000E013C90E645EA060E8DE60CEA135594EA0C0F08BF95EA0C0F3FF43BAF94EA0C0F0AD150EA01347FF434AF95EA0C0F7FF425AF104619462CE7AE
:403F400095EA0C0F06D152EA03353FF4FDAE1046194622E750EA410618BF52EA43067FF4C5AE50EA41047FF40DAF52EA43057FF4EBAE12E74FEA410212F5001215D211D564
:403F80006FF47873B3EB625212D94FEAC12343F0004343EA505311F0004F23FA02F018BF404270474FF00000704750EA013005D111F0004008BF6FF0004070474FF00000D0
:403FC000704700BF00210A2200F0C8B80E4B70B51E460E4C0025E41AA410A54204D056F8253098470135F8E700F066F9084B094C1E46E41AA4100025A54204D056F8253099
:4040000098470135F8E770BDC4420000C4420000C4420000CC42000010B5431E0A44914204D011F8014B03F8014FF8E710BD03460244934202D003F8011BFAE770470346AA
:4040400011F8012B03F8012B002AF9D1704700002DE9F0470F46404CD4F800903D4615F801EB09EB0E04667806F0080404F0FF060CB12F46F2E774462D2C03D1BD1C7C7895
:40408000012603E02B2C04BF7C78BD1C13B1102B0AD15AE0302C56D12C7804F0DF04582C4CD16C7810230235002E14BF4FF000486FF00048B8FBF3FA0027BE4603FB1A8874
:4040C00009EB040C9CF801C01CF0040F01D0303C0BE01CF0030C1BD0BCF1010F0CBF4FF0370C4FF0570CCCEB04049C4210DAB7F1FF3F0AD0D64506D801D1444503DC03FBF6
:404100000E4E012701E04FF0FF3715F8014BD7E77C1C73460AD1002E4FF0220114BF4FF000436FF0004301602AB911E00EB1CEF100036AB107B1691E116009E03024002BF2
:40414000B2D10823B0E70A23AEE7302CACD1A3E71846BDE8F08700BFE881FF1F30B505460C461346034A294610682246BDE83040FFF76EBFE481FF1F00000000004F004054
:40418000240040510040300000000140001000140140000800400140000A004C01400002105001401000000000500140741000481000000043000020202020202020202091
:4041C000282828282820202020202020202020202020202020202088101010101010101010101010101010040404040404040404041010101010101041414141414101011F
:4042000001010101010101010101010101010101010110101010101042424242424202020202020202020202020202020202020202021010101020000000000000000000F8
:40424000000000000000000000000000000000000000000000000000000000000000000000000000000000000000000000000000000000000000000000000000000000003E
:404280000000000000000000000000000000000000000000000000000000000000000000000000000000000000000000000000000000000000000000F8B500BFF8BC08BC1A
:4042C0009E4670474D00000095130000F8B500BFF8BC08BC9E46704729000000F04200000881FF1FE8000000A803000000000000000000000A000000435333303120323064
:4043000031360A00000000000000000000000000000000000000000000000000000000000000000000000000000000000000000000000000000000009E2800000F00000037
:40434000CA000000670200007F00000001000000FFFFFFFF807F0000030000000087930360EA00003C00000000003075000000000000000000000000000000000000000044
:40438000000000000000000000000000B441000000000000000000000000000000000000000000000000000000000000000000000000000000000000000000000000000008
:4043C0000000000000000000000000008481FF1FB64100000000000000000000000000000000000000000000000000000000000000000000000000000000000000000000A3
:40440000000000000000000000000000000000000000000000000000000000000000000000000000000000000000000000000000000000000000000000000000000000007C
:40444000000000000000000000000000000000000000000000000000000000000000000000000000000000000000000000000000000000000000000000000000000000003C
:4044800000000000000000000000000000000000000000000000000000000000000000000000000000000000000000000000000000000000000000000000000000000000FC
:4044C00000000000000000000000000000000000000000000000000000000000000000000000000000000000000000000000000000000000000000000000000000000000BC
:020000040003F7
:0200000480007A
:4000000001450040064F00400A520040015B004004640040046500402500014042010140420201404E030140420401405905014046060140560701404C0801405C0901408F
:40004000560A01405D0B0140450C0140570D01403C0E01403C0F01404E140140591501404B1601404C170140591801405A190140261A0140531B01400E4001401841014091
:400080001042014011430140054401400F4501400B46014012470140144801400B490140174C01400C4D014003500140045101407E0201200A4B0D20164B1940224B00A049
:4000C000012009141009110818201928602061307C402F848107830F840F8E6F856F870F88388B7208010C0110011801200126012A013601580459045C115F018324870107
:4001000089088A028F02910495019B08A601A710A902B001B120B402B51FB920BF10D602D73ED804D904DB0CDC11DD10DF01011002020628074009020A040D200E800F10C2
:40014000104012201310148417041B401D021E8C1F0125202622274028C02A202C802D102E202F113004312032023484360637103B123C803E093F105F0465016C106D40C1
:400180006E036F147440760877017F0280018480852087208A048F01C073C27AC47ECAF5CCF7CEF5D640D880DE10E001E220E408E6040204060208080C021010122016088A
:4001C0001A011C04204022802420261028012C802E402F0134FF37013E10580459045C105F01801182468302844C861389308B048C118D308E0E8F0891209304951C9608E4
:4002000098209A039B039D02A140A73CAA4CAD2CAF10B030B13CB340B40FB502B64AB701B802BAA0BF14D401D604D804D904DB04DC03DD30DF01018002800320042006207E
:40024000074108080B080C020EA60F1010081480154016081706188119801B201F102111224423402702280229022B902D402E2030013120324835043660370239103A01E3
:400280003B403E043F1059025A185B80638080488340860188088C208D048E108F40902091409204940197359A089B459C809D019E20A261A723AB40B311C0FDC2F6C4F242
:4002C000CA3BCCFFCE6DD60FD801E009E608E804EE04050806040B080C040F021401170118081C082101240429042A03300832023303340435043601370838023E113F507F
:400300004021410545B046CE480E49FF4AFF4BFF4EF04F44500C540F5604580C59045A045B045C915D035F0166C06A406B02819683688A018D0E8FF091FE9301957FA30108
:40034000A9A3AB5CADC5AF3AB201B3FFBF04D804D904DC01DF010080010804200620074009100A220B040C020E24110413201480171019111A201B401D081E2022042329EC
:4003800025042B442D112F09322433103402360A380839063A403B223D8242024320488049805020538059165A4063407B02810284018540868087708A028B048F0890A0BB
:4003C0009122920495109601970D988099809B419C039D019E20A002A220A4A0A520A698A793AB80AC80B302B601C075C277C456CAB5CCC2CE9ED00CD208D60FD801DE08C9
:40040000E20AE64CE808EA01003002C9070209010B100D100F011094111D126014CF151C16301A0F1B1C1CFD1D051E021F08209E22602473250527082B202F40314032FF61
:40044000333C35033E045608580459045B045D905F0186088B018D028E088F04950496049702980899029B0C9D029E019F14A402AC02B008B108B202B306B404B510B601F9
:40048000B701B808BB08BE01D608D804D904DB04DD90DF010080010806800A0A0B200C010E9A0F801022150A180819081A491F042040225023202520260427402E082F0580
:4004C000300832503510364A38403A103D083E9045014680480449104A0759A05C80625067026C016F04804283148581860889088A018B028F049080912292049310940815
:400500009641972098019B019D089E60A050A10CA220A531A60AA70FA901AB50AC52B121B201B504C015C2F7C435CA70CCFECE7CD61CD81CE001E204E401E804EA02EE109C
:40054000010E020503F0040305FE060407010803097F0A0C0C1011C51210133A161018031A041B011E08240A25962604276829A32B5C320F341037FF3A083E103F40406547
:4005800041014203440445C0470E481249FF4AFF4BFF4C624DA04EF04F41500C5608580459045A045B045C035D935F016640670269106A306B106D106E106F128001840176
:4005C000880192019A01A601AC01B001D280D804D904DB04DC11DF010130024003900410054207200A8C0D420E200F0811041340142018801C101D201F04264029202A40FD
:400600002C202F0832443310361239043B403C013F24462047424C0A4D0156085C405E085F10610163406406650866806E406F02710280808140820487108A048B508D84D0
:40064000900492109364942B952796809788982099629B229C149D0C9EB29F50A00AA10CA29BA35CA4F4A660A702AA40AD08B440B710C0FEC2FAC425CA6CCCAECEEAD0D0F6
:40068000D230D670D870E228E4B1E604EA30EE100113020F032C057F08CC0A020B800CCC0D1A0E010F25121014AB16041770186719451B0A240825772601290C2B43320F2D
:4006C00033F034E0350F361038223E01580459045F018004820283208620871888028A048B048C088F0992109601971298029A049C08A002A204A408A808AB20AD09AE082B
:40070000AF12B006B218B320B420B503B601B71CBA02BF44C001C740C9FFCA07CBFFCC40CD20CEF0CF05D008D804D904DA04DC30DD03DF01E040E1A8E240E32000010110FF
:40074000020203080519060108020A240D400EA81020140115101640170818801A051B181D531E201F1021082210230C2404250427022B182E202F023020310834043801A4
:4007800039803A013B143C283D013E8045404D0254016040638079807A02821085028601870488218902904092109350942B952696C0978C982299209A409B209C109D0677
:4007C0009E129F52A00AA140A28FA304A4E1A508A620A718A840AB40AC80AE01B201B340B501C0FBC2FEC4F4CA36CC46CEFFD010E280E824EE42000801140408052C071132
:40080000080809400C110D401211132014311509160617101802191C1B221C041F03200721402230240625102631280629302B0C2C372F203020312032083340340736105C
:40084000371F380239083A203F055280580459045B045C335F018194836085FD8702919E9360970F99309BC9A573A9CFAB30B3FFBF04D608D804D904DB04DC01DD90DF01B8
:4008800001300310042A070209040A820C1A0D40100111041522161017401C601D101E0223102480268828082B182C802D082E802F0430203108320234203502368037041B
:4008C00038013B043C803E093F2841404206431048084910588060027501830485208644881389088D208E808F2092189401951696C697CC98219A089C089D169E109F402D
:40090000A144A206A340A4A0A520A620A710AA80B002B108C0F6C2FDC4F5CAF6CCF7CEF3D608D808E010E280E410E884EC8005020601070109030D03110312011401150358
:4009400018011E011F03250328012C01330236013701540F580459045B045C115F05810883018408850B8704880889078C049008910C9302950C970199309A019D209E0683
:40098000A310A70FA930AC08B002B10FB208B401B604B730B980BE44BF40D401D804D904DB0FDD10DF0101040440051006100810090C0A860C800D2110031110160817608C
:4009C0001B401C401E1922842540260228102C202D022F04300231083240340835403602372039143B403C013F2459085A015B905E40610462207B107F40832084208540E9
:400A000089088C808F90C0E4C2DFC483CAE2CCFBCEEED61FD806DE82E220E430E6044023410649FF4AFF4BFF4DA04F015018580459045A045C115F01604062806440654033
:400A4000668068406A806C406D206E80820289018C089004910293049502970499049B029C089E05A102A30CA408B001B208B306B404B508B602B701B808BB08BE14BF4069
:400A8000C026C103C52CC640C73EC83BC9FFCAFFCBFFCDAFCE07CF01D018D40FD804D904DA04DB04DF05E040E280E440E540E680E840EA80EC40ED20EE8000220110022429
:400AC000050206020740080209080A040E800F02100215081C101D201E801F402725280829012A042F40300231083220350237243B083C083D083F20401041104310450449
:400B0000471048044C804E404F16560A5720580A59015A045DA15E0860106310660867047E088120824083208401870589398C088E2091289204980299809B409E02A0166E
:400B4000A108A22CA310A480A720A9A8AA02AB08C09EC29EC421CA87CCE7CE22D066D224D6F0D860DE20E003E608EC20010403080440060309040B180C200E04100211081E
:400B800013041430160819021C401D041F08202C2210241C270328302A042E3C3001310C323C3301340235023640371038803B023E103F1052035302580459045B045D102A
:400BC0005F01840485CA8602870588088D058F0A91AF9206940695679F10A103A30CA609A9CCAB03B008B10FB201B3E0B404B602B710B908BE51D40FD604D804D904DB0493
:400C0000DF0100180480050809040B800C800E5010201401150A1608181019501B011E581F482105220F230124802505268127182B482F20328A3681371038803A083F11A8
:400C400059505A0A60806D206F02800284208B108C828E2091209204931095089610972098019A089B409D209E20A014A108A220A350A420A511A60AA70BB301B489B720E1
:400C8000C0A6C2BCC4F4CA45CCBBCEAAD60FD801E21AE605E810EA44EE0404F3060808F30A040F01105112A2160C18301AC328802A222C402E11320F330134F03A08402673
:400CC000410349FF4AFF4BFF4DA04F01501854185604580459045A045B045C135D305F016040628064406540668068406A806C406D206E8080018401880189018C018F01F8
:400D00009201980199019D01A201A301A501AF01B201B301C026C103C53EC6C2C704C81FC9FFCAFFCBFFCDAFCE07CF01D018D804D904DA04DC11DF01E040E280E440E540D1
:400D4000E680E840EA80EC40ED20EE80011203920428082009010B400E6410401406162017041A201C281E242310271028602A802B022C402D042E803390350237103910F8
:400D80003B403D9241284528484049044A084E08508052205308581059205E02614062806580678881018210844087408B088F109004911092509340942A95269680980679
:400DC00099819A089C109D049E329F50A00AA168A289A340A4F4A620A780A840B140B441C06FC27AC4C8CADBCCACCEBCD066D224D680D8B0E220E640E801EA04EC30EE0462
:400E0000580459045C115F0181FF870C89308A028C018D048F0891049202950899109D3C9FC1A120A57CA782A9CFAB30AFC3B202B33FB570B601B7B0BB8ABE44D602D711B7
:400E4000D804D904DB04DC31DD30DF010080011805410648071009200A800FAA110412401420151416041F44250526802744282029012A802B052C1A2E02304031203240BF
:400E8000331034063520368039203A243C043D023E604410450446105E106C157520762279027A808020851088608A808B408D088E408F94900491109250942A9526968034
:400EC0009708980699419A089B109C609D209E929F44A00AA340A420A780AF10C0F7C2FAC46CCAFFCCFCCEF2D620E0D2E420E808EC2012401680308031043402364038221C
:400F00003E8080018802C430CCF0CE70E620338235803608388050C059085E0864088302840894209A409D04A204A480A640AA04CCF0CE10D6C0D880E220E610EE2012080B
:400F40005F016204630186408D0194209A409D8CA480A648A780C440D6C0D840E64019021F08810283088640942099019A409D8CA780A880B604B701C630E010E4A0EA208F
:400F8000710883208B10DC01E20401400B8022015420570297209A01A508A720AA01C002C208C802D402D60491409202938097209A019B10A420A588A722AB10AD800B2240
:400FC0000E408004830487408D089140938097209A019B10A420A588A722B201C20EE408EA04001007402080810885808D049302941099039D8CA810AB80B410B701C060B1
:40100000C840E210E620EA20EE2053015901650293029903AB40B040D480D640D880EC8009800F081F2034015A015B10620190089A019B10A580A726A820AA40AB01B540E9
:40104000C203C601CC01D401D602D802EA027004772087208B029008A702AE01B001DC01DE04E401EC04100B1A031C0B00BF01FA020F100A0B010000000000000B000B01C9
:401080000B010B01001C1C0000E0E000007C7C00700000004000060000000000C0000000C000000000343400080014EAEA0008010100000000F8F800380000000001000067
:4010C00000000000000000000000000000000000000000000000000000000000000000000000000000000000000000000000000000000000000000000000000000000000F0
:4011000000000000000000000000000000000000000000000000000000000000000000000000000000000000000000000000000000000000000000000000000000000000AF
:40114000000000000000000000000000000000000000000000000000000000000000000000000000000000000000000000000000000000000000000000000000000000006F
:40118000000000000000000000000000000000000000000000000000000000000000000000000000000000000000000000000000000000000000000000000000000000002F
:0200000490006A
:0400000000004005B7
:0200000490105A
:04000000BC90ACAF55
:0200000490303A
:0200000045BDFC
:0200000490402A
:4000000000000000000000000000000000000000000000000000000000000000000000000000000000000000000000000000000000000000000000000000000000000000C0
:400040000000000000000000000000000000000000000000000000000000000000000000000000000000000000000000000000000000000000000000000000000000000080
:400080000000000000000000000000000000000000000000000000000000000000000000000000000000000000000000000000000000000000000000000000000000000040
:4000C0000000000000000000000000000000000000000000000000000000000000000000000000000000000000000000000000000000000000000000000000000000000000
:0200000490501A
:0C00000000012E16106900012E35562656
:00000001FF